{
  "_format": "hh-sol-artifact-1",
  "contractName": "Domains",
  "sourceName": "contracts/Domains.sol",
  "abi": [
    {
      "inputs": [
        {
          "internalType": "string",
          "name": "_tld",
          "type": "string"
        }
      ],
      "stateMutability": "payable",
      "type": "constructor"
    },
    {
      "inputs": [],
      "name": "AlreadyRegistered",
      "type": "error"
    },
    {
      "inputs": [
        {
          "internalType": "string",
          "name": "name",
          "type": "string"
        }
      ],
      "name": "InvalidName",
      "type": "error"
    },
    {
      "inputs": [],
      "name": "Unauthorized",
      "type": "error"
    },
    {
      "anonymous": false,
      "inputs": [
        {
          "indexed": true,
          "internalType": "address",
          "name": "owner",
          "type": "address"
        },
        {
          "indexed": true,
          "internalType": "address",
          "name": "approved",
          "type": "address"
        },
        {
          "indexed": true,
          "internalType": "uint256",
          "name": "tokenId",
          "type": "uint256"
        }
      ],
      "name": "Approval",
      "type": "event"
    },
    {
      "anonymous": false,
      "inputs": [
        {
          "indexed": true,
          "internalType": "address",
          "name": "owner",
          "type": "address"
        },
        {
          "indexed": true,
          "internalType": "address",
          "name": "operator",
          "type": "address"
        },
        {
          "indexed": false,
          "internalType": "bool",
          "name": "approved",
          "type": "bool"
        }
      ],
      "name": "ApprovalForAll",
      "type": "event"
    },
    {
      "anonymous": false,
      "inputs": [
        {
          "indexed": true,
          "internalType": "address",
          "name": "previousOwner",
          "type": "address"
        },
        {
          "indexed": true,
          "internalType": "address",
          "name": "newOwner",
          "type": "address"
        }
      ],
      "name": "OwnershipTransferred",
      "type": "event"
    },
    {
      "anonymous": false,
      "inputs": [
        {
          "indexed": true,
          "internalType": "address",
          "name": "from",
          "type": "address"
        },
        {
          "indexed": true,
          "internalType": "address",
          "name": "to",
          "type": "address"
        },
        {
          "indexed": true,
          "internalType": "uint256",
          "name": "tokenId",
          "type": "uint256"
        }
      ],
      "name": "Transfer",
      "type": "event"
    },
    {
      "inputs": [
        {
          "internalType": "address",
          "name": "to",
          "type": "address"
        },
        {
          "internalType": "uint256",
          "name": "tokenId",
          "type": "uint256"
        }
      ],
      "name": "approve",
      "outputs": [],
      "stateMutability": "nonpayable",
      "type": "function"
    },
    {
      "inputs": [
        {
          "internalType": "address",
          "name": "owner",
          "type": "address"
        }
      ],
      "name": "balanceOf",
      "outputs": [
        {
          "internalType": "uint256",
          "name": "",
          "type": "uint256"
        }
      ],
      "stateMutability": "view",
      "type": "function"
    },
    {
      "inputs": [
        {
          "internalType": "string",
          "name": "",
          "type": "string"
        }
      ],
      "name": "domains",
      "outputs": [
        {
          "internalType": "address",
          "name": "",
          "type": "address"
        }
      ],
      "stateMutability": "view",
      "type": "function"
    },
    {
      "inputs": [
        {
          "internalType": "string",
          "name": "name",
          "type": "string"
        }
      ],
      "name": "getAddress",
      "outputs": [
        {
          "internalType": "address",
          "name": "",
          "type": "address"
        }
      ],
      "stateMutability": "view",
      "type": "function"
    },
    {
      "inputs": [],
      "name": "getAllNames",
      "outputs": [
        {
          "internalType": "string[]",
          "name": "",
          "type": "string[]"
        }
      ],
      "stateMutability": "view",
      "type": "function"
    },
    {
      "inputs": [
        {
          "internalType": "uint256",
          "name": "tokenId",
          "type": "uint256"
        }
      ],
      "name": "getApproved",
      "outputs": [
        {
          "internalType": "address",
          "name": "",
          "type": "address"
        }
      ],
      "stateMutability": "view",
      "type": "function"
    },
    {
      "inputs": [
        {
          "internalType": "string",
          "name": "name",
          "type": "string"
        }
      ],
      "name": "getRecord",
      "outputs": [
        {
          "internalType": "string",
          "name": "",
          "type": "string"
        }
      ],
      "stateMutability": "view",
      "type": "function"
    },
    {
      "inputs": [
        {
          "internalType": "address",
          "name": "owner",
          "type": "address"
        },
        {
          "internalType": "address",
          "name": "operator",
          "type": "address"
        }
      ],
      "name": "isApprovedForAll",
      "outputs": [
        {
          "internalType": "bool",
          "name": "",
          "type": "bool"
        }
      ],
      "stateMutability": "view",
      "type": "function"
    },
    {
      "inputs": [],
      "name": "name",
      "outputs": [
        {
          "internalType": "string",
          "name": "",
          "type": "string"
        }
      ],
      "stateMutability": "view",
      "type": "function"
    },
    {
      "inputs": [
        {
          "internalType": "uint256",
          "name": "",
          "type": "uint256"
        }
      ],
      "name": "names",
      "outputs": [
        {
          "internalType": "string",
          "name": "",
          "type": "string"
        }
      ],
      "stateMutability": "view",
      "type": "function"
    },
    {
      "inputs": [],
      "name": "owner",
      "outputs": [
        {
          "internalType": "address",
          "name": "",
          "type": "address"
        }
      ],
      "stateMutability": "view",
      "type": "function"
    },
    {
      "inputs": [
        {
          "internalType": "uint256",
          "name": "tokenId",
          "type": "uint256"
        }
      ],
      "name": "ownerOf",
      "outputs": [
        {
          "internalType": "address",
          "name": "",
          "type": "address"
        }
      ],
      "stateMutability": "view",
      "type": "function"
    },
    {
      "inputs": [
        {
          "internalType": "string",
          "name": "name",
          "type": "string"
        }
      ],
      "name": "price",
      "outputs": [
        {
          "internalType": "uint256",
          "name": "",
          "type": "uint256"
        }
      ],
      "stateMutability": "pure",
      "type": "function"
    },
    {
      "inputs": [
        {
          "internalType": "string",
          "name": "",
          "type": "string"
        }
      ],
      "name": "records",
      "outputs": [
        {
          "internalType": "string",
          "name": "",
          "type": "string"
        }
      ],
      "stateMutability": "view",
      "type": "function"
    },
    {
      "inputs": [
        {
          "internalType": "string",
          "name": "name",
          "type": "string"
        }
      ],
      "name": "register",
      "outputs": [],
      "stateMutability": "payable",
      "type": "function"
    },
    {
      "inputs": [],
      "name": "renounceOwnership",
      "outputs": [],
      "stateMutability": "nonpayable",
      "type": "function"
    },
    {
      "inputs": [
        {
          "internalType": "address",
          "name": "from",
          "type": "address"
        },
        {
          "internalType": "address",
          "name": "to",
          "type": "address"
        },
        {
          "internalType": "uint256",
          "name": "tokenId",
          "type": "uint256"
        }
      ],
      "name": "safeTransferFrom",
      "outputs": [],
      "stateMutability": "nonpayable",
      "type": "function"
    },
    {
      "inputs": [
        {
          "internalType": "address",
          "name": "from",
          "type": "address"
        },
        {
          "internalType": "address",
          "name": "to",
          "type": "address"
        },
        {
          "internalType": "uint256",
          "name": "tokenId",
          "type": "uint256"
        },
        {
          "internalType": "bytes",
          "name": "_data",
          "type": "bytes"
        }
      ],
      "name": "safeTransferFrom",
      "outputs": [],
      "stateMutability": "nonpayable",
      "type": "function"
    },
    {
      "inputs": [
        {
          "internalType": "address",
          "name": "operator",
          "type": "address"
        },
        {
          "internalType": "bool",
          "name": "approved",
          "type": "bool"
        }
      ],
      "name": "setApprovalForAll",
      "outputs": [],
      "stateMutability": "nonpayable",
      "type": "function"
    },
    {
      "inputs": [
        {
          "internalType": "string",
          "name": "name",
          "type": "string"
        },
        {
          "internalType": "string",
          "name": "record",
          "type": "string"
        }
      ],
      "name": "setRecord",
      "outputs": [],
      "stateMutability": "nonpayable",
      "type": "function"
    },
    {
      "inputs": [
        {
          "internalType": "bytes4",
          "name": "interfaceId",
          "type": "bytes4"
        }
      ],
      "name": "supportsInterface",
      "outputs": [
        {
          "internalType": "bool",
          "name": "",
          "type": "bool"
        }
      ],
      "stateMutability": "view",
      "type": "function"
    },
    {
      "inputs": [],
      "name": "symbol",
      "outputs": [
        {
          "internalType": "string",
          "name": "",
          "type": "string"
        }
      ],
      "stateMutability": "view",
      "type": "function"
    },
    {
      "inputs": [],
      "name": "tld",
      "outputs": [
        {
          "internalType": "string",
          "name": "",
          "type": "string"
        }
      ],
      "stateMutability": "view",
      "type": "function"
    },
    {
      "inputs": [
        {
          "internalType": "uint256",
          "name": "tokenId",
          "type": "uint256"
        }
      ],
      "name": "tokenURI",
      "outputs": [
        {
          "internalType": "string",
          "name": "",
          "type": "string"
        }
      ],
      "stateMutability": "view",
      "type": "function"
    },
    {
      "inputs": [
        {
          "internalType": "address",
          "name": "from",
          "type": "address"
        },
        {
          "internalType": "address",
          "name": "to",
          "type": "address"
        },
        {
          "internalType": "uint256",
          "name": "tokenId",
          "type": "uint256"
        }
      ],
      "name": "transferFrom",
      "outputs": [],
      "stateMutability": "nonpayable",
      "type": "function"
    },
    {
      "inputs": [
        {
          "internalType": "address",
          "name": "newOwner",
          "type": "address"
        }
      ],
      "name": "transferOwnership",
      "outputs": [],
      "stateMutability": "nonpayable",
      "type": "function"
    },
    {
      "inputs": [
        {
          "internalType": "string",
          "name": "name",
          "type": "string"
        }
      ],
      "name": "valid",
      "outputs": [
        {
          "internalType": "bool",
          "name": "",
          "type": "bool"
        }
      ],
      "stateMutability": "pure",
      "type": "function"
    },
    {
      "inputs": [],
      "name": "withdraw",
      "outputs": [],
      "stateMutability": "nonpayable",
      "type": "function"
    }
  ],
  "bytecode": "0x6080604052604051806108a0016040528061086b8152602001620057b461086b9139600a90805190602001906200003892919062000375565b506040518060400160405280600d81526020017f3c2f746578743e3c2f7376673e00000000000000000000000000000000000000815250600b90805190602001906200008692919062000375565b506040516200601f3803806200601f8339818101604052810190620000ac9190620005c2565b6040518060400160405280601281526020017f4e696e6a61204e616d65205365727669636500000000000000000000000000008152506040518060400160405280600381526020017f4e4e53000000000000000000000000000000000000000000000000000000000081525081600090805190602001906200013092919062000375565b5080600190805190602001906200014992919062000375565b5050506200016c62000160620001d860201b60201c565b620001e060201b60201c565b80600990805190602001906200018492919062000375565b50620001d16040518060400160405280601881526020017f2573206e616d652073657276696365206465706c6f796564000000000000000081525082620002a660201b62001dbb1760201c565b5062000710565b600033905090565b6000600760009054906101000a900473ffffffffffffffffffffffffffffffffffffffff16905081600760006101000a81548173ffffffffffffffffffffffffffffffffffffffff021916908373ffffffffffffffffffffffffffffffffffffffff1602179055508173ffffffffffffffffffffffffffffffffffffffff168173ffffffffffffffffffffffffffffffffffffffff167f8be0079c531659141344cd1fd0a4f28419497f9722a3daafe3b4186f6b6457e060405160405180910390a35050565b620003488282604051602401620002bf92919062000670565b6040516020818303038152906040527f4b5c4277000000000000000000000000000000000000000000000000000000007bffffffffffffffffffffffffffffffffffffffffffffffffffffffff19166020820180517bffffffffffffffffffffffffffffffffffffffffffffffffffffffff83818316178352505050506200034c60201b60201c565b5050565b60008151905060006a636f6e736f6c652e6c6f679050602083016000808483855afa5050505050565b8280546200038390620006da565b90600052602060002090601f016020900481019282620003a75760008555620003f3565b82601f10620003c257805160ff1916838001178555620003f3565b82800160010185558215620003f3579182015b82811115620003f2578251825591602001919060010190620003d5565b5b50905062000402919062000406565b5090565b5b808211156200042157600081600090555060010162000407565b5090565b6000604051905090565b600080fd5b600080fd5b600080fd5b600080fd5b6000601f19601f8301169050919050565b7f4e487b7100000000000000000000000000000000000000000000000000000000600052604160045260246000fd5b6200048e8262000443565b810181811067ffffffffffffffff82111715620004b057620004af62000454565b5b80604052505050565b6000620004c562000425565b9050620004d3828262000483565b919050565b600067ffffffffffffffff821115620004f657620004f562000454565b5b620005018262000443565b9050602081019050919050565b60005b838110156200052e57808201518184015260208101905062000511565b838111156200053e576000848401525b50505050565b60006200055b6200055584620004d8565b620004b9565b9050828152602081018484840111156200057a57620005796200043e565b5b620005878482856200050e565b509392505050565b600082601f830112620005a757620005a662000439565b5b8151620005b984826020860162000544565b91505092915050565b600060208284031215620005db57620005da6200042f565b5b600082015167ffffffffffffffff811115620005fc57620005fb62000434565b5b6200060a848285016200058f565b91505092915050565b600081519050919050565b600082825260208201905092915050565b60006200063c8262000613565b6200064881856200061e565b93506200065a8185602086016200050e565b620006658162000443565b840191505092915050565b600060408201905081810360008301526200068c81856200062f565b90508181036020830152620006a281846200062f565b90509392505050565b7f4e487b7100000000000000000000000000000000000000000000000000000000600052602260045260246000fd5b60006002820490506001821680620006f357607f821691505b602082108114156200070a5762000709620006ab565b5b50919050565b61509480620007206000396000f3fe6080604052600436106101b75760003560e01c8063715018a6116100ec578063c1880a981161008a578063f2c298be11610064578063f2c298be14610668578063f2fde38b14610684578063fb825e5f146106ad578063fe2c6198146106d8576101b7565b8063c1880a98146105c5578063c87b56dd146105ee578063e985e9c51461062b576101b7565b80639791c097116100c65780639791c097146104f9578063a22cb46514610536578063b88d4fde1461055f578063bf40fac114610588576101b7565b8063715018a61461048c5780638da5cb5b146104a357806395d89b41146104ce576101b7565b80632d551432116101595780634622ab03116101335780634622ab0314610398578063541e771d146103d55780636352211e1461041257806370a082311461044f576101b7565b80632d5514321461032d5780633ccfd60b1461035857806342842e0e1461036f576101b7565b8063095ea7b311610195578063095ea7b31461026157806311dd88451461028a57806323b872dd146102c757806326449235146102f0576101b7565b806301ffc9a7146101bc57806306fdde03146101f9578063081812fc14610224575b600080fd5b3480156101c857600080fd5b506101e360048036038101906101de9190613366565b610715565b6040516101f091906133ae565b60405180910390f35b34801561020557600080fd5b5061020e6107f7565b60405161021b9190613462565b60405180910390f35b34801561023057600080fd5b5061024b600480360381019061024691906134ba565b610889565b6040516102589190613528565b60405180910390f35b34801561026d57600080fd5b506102886004803603810190610283919061356f565b61090e565b005b34801561029657600080fd5b506102b160048036038101906102ac9190613614565b610a26565b6040516102be9190613462565b60405180910390f35b3480156102d357600080fd5b506102ee60048036038101906102e99190613661565b610ad9565b005b3480156102fc57600080fd5b50610317600480360381019061031291906137e4565b610b39565b6040516103249190613528565b60405180910390f35b34801561033957600080fd5b50610342610b82565b60405161034f9190613462565b60405180910390f35b34801561036457600080fd5b5061036d610c10565b005b34801561037b57600080fd5b5061039660048036038101906103919190613661565b610d65565b005b3480156103a457600080fd5b506103bf60048036038101906103ba91906134ba565b610d85565b6040516103cc9190613462565b60405180910390f35b3480156103e157600080fd5b506103fc60048036038101906103f791906137e4565b610e25565b6040516104099190613462565b60405180910390f35b34801561041e57600080fd5b50610439600480360381019061043491906134ba565b610edb565b6040516104469190613528565b60405180910390f35b34801561045b57600080fd5b506104766004803603810190610471919061382d565b610f8d565b6040516104839190613869565b60405180910390f35b34801561049857600080fd5b506104a1611045565b005b3480156104af57600080fd5b506104b86110cd565b6040516104c59190613528565b60405180910390f35b3480156104da57600080fd5b506104e36110f7565b6040516104f09190613462565b60405180910390f35b34801561050557600080fd5b50610520600480360381019061051b9190613614565b611189565b60405161052d91906133ae565b60405180910390f35b34801561054257600080fd5b5061055d600480360381019061055891906138b0565b61123d565b005b34801561056b57600080fd5b5061058660048036038101906105819190613991565b611253565b005b34801561059457600080fd5b506105af60048036038101906105aa9190613614565b6112b5565b6040516105bc9190613528565b60405180910390f35b3480156105d157600080fd5b506105ec60048036038101906105e79190613a14565b611300565b005b3480156105fa57600080fd5b50610615600480360381019061061091906134ba565b6113db565b6040516106229190613462565b60405180910390f35b34801561063757600080fd5b50610652600480360381019061064d9190613a95565b61152d565b60405161065f91906133ae565b60405180910390f35b610682600480360381019061067d9190613614565b6115c1565b005b34801561069057600080fd5b506106ab60048036038101906106a6919061382d565b611a3f565b005b3480156106b957600080fd5b506106c2611b37565b6040516106cf9190613be1565b60405180910390f35b3480156106e457600080fd5b506106ff60048036038101906106fa9190613614565b611d15565b60405161070c9190613869565b60405180910390f35b60007f80ac58cd000000000000000000000000000000000000000000000000000000007bffffffffffffffffffffffffffffffffffffffffffffffffffffffff1916827bffffffffffffffffffffffffffffffffffffffffffffffffffffffff191614806107e057507f5b5e139f000000000000000000000000000000000000000000000000000000007bffffffffffffffffffffffffffffffffffffffffffffffffffffffff1916827bffffffffffffffffffffffffffffffffffffffffffffffffffffffff1916145b806107f057506107ef82611e57565b5b9050919050565b60606000805461080690613c32565b80601f016020809104026020016040519081016040528092919081815260200182805461083290613c32565b801561087f5780601f106108545761010080835404028352916020019161087f565b820191906000526020600020905b81548152906001019060200180831161086257829003601f168201915b5050505050905090565b600061089482611ec1565b6108d3576040517f08c379a00000000000000000000000000000000000000000000000000000000081526004016108ca90613cd6565b60405180910390fd5b6004600083815260200190815260200160002060009054906101000a900473ffffffffffffffffffffffffffffffffffffffff169050919050565b600061091982610edb565b90508073ffffffffffffffffffffffffffffffffffffffff168373ffffffffffffffffffffffffffffffffffffffff16141561098a576040517f08c379a000000000000000000000000000000000000000000000000000000000815260040161098190613d68565b60405180910390fd5b8073ffffffffffffffffffffffffffffffffffffffff166109a9611f2d565b73ffffffffffffffffffffffffffffffffffffffff1614806109d857506109d7816109d2611f2d565b61152d565b5b610a17576040517f08c379a0000000000000000000000000000000000000000000000000000000008152600401610a0e90613dfa565b60405180910390fd5b610a218383611f35565b505050565b6060600d8383604051610a3a929190613e4a565b90815260200160405180910390208054610a5390613c32565b80601f0160208091040260200160405190810160405280929190818152602001828054610a7f90613c32565b8015610acc5780601f10610aa157610100808354040283529160200191610acc565b820191906000526020600020905b815481529060010190602001808311610aaf57829003601f168201915b5050505050905092915050565b610aea610ae4611f2d565b82611fee565b610b29576040517f08c379a0000000000000000000000000000000000000000000000000000000008152600401610b2090613ed5565b60405180910390fd5b610b348383836120cc565b505050565b600c818051602081018201805184825260208301602085012081835280955050505050506000915054906101000a900473ffffffffffffffffffffffffffffffffffffffff1681565b60098054610b8f90613c32565b80601f0160208091040260200160405190810160405280929190818152602001828054610bbb90613c32565b8015610c085780601f10610bdd57610100808354040283529160200191610c08565b820191906000526020600020905b815481529060010190602001808311610beb57829003601f168201915b505050505081565b610c18611f2d565b73ffffffffffffffffffffffffffffffffffffffff16610c366110cd565b73ffffffffffffffffffffffffffffffffffffffff1614610c8c576040517f08c379a0000000000000000000000000000000000000000000000000000000008152600401610c8390613f41565b60405180910390fd5b60003073ffffffffffffffffffffffffffffffffffffffff163190506000610cb2611f2d565b905060008173ffffffffffffffffffffffffffffffffffffffff1683604051610cda90613f92565b60006040518083038185875af1925050503d8060008114610d17576040519150601f19603f3d011682016040523d82523d6000602084013e610d1c565b606091505b5050905080610d60576040517f08c379a0000000000000000000000000000000000000000000000000000000008152600401610d5790613ff3565b60405180910390fd5b505050565b610d8083838360405180602001604052806000815250611253565b505050565b600e6020528060005260406000206000915090508054610da490613c32565b80601f0160208091040260200160405190810160405280929190818152602001828054610dd090613c32565b8015610e1d5780601f10610df257610100808354040283529160200191610e1d565b820191906000526020600020905b815481529060010190602001808311610e0057829003601f168201915b505050505081565b600d818051602081018201805184825260208301602085012081835280955050505050506000915090508054610e5a90613c32565b80601f0160208091040260200160405190810160405280929190818152602001828054610e8690613c32565b8015610ed35780601f10610ea857610100808354040283529160200191610ed3565b820191906000526020600020905b815481529060010190602001808311610eb657829003601f168201915b505050505081565b6000806002600084815260200190815260200160002060009054906101000a900473ffffffffffffffffffffffffffffffffffffffff169050600073ffffffffffffffffffffffffffffffffffffffff168173ffffffffffffffffffffffffffffffffffffffff161415610f84576040517f08c379a0000000000000000000000000000000000000000000000000000000008152600401610f7b90614085565b60405180910390fd5b80915050919050565b60008073ffffffffffffffffffffffffffffffffffffffff168273ffffffffffffffffffffffffffffffffffffffff161415610ffe576040517f08c379a0000000000000000000000000000000000000000000000000000000008152600401610ff590614117565b60405180910390fd5b600360008373ffffffffffffffffffffffffffffffffffffffff1673ffffffffffffffffffffffffffffffffffffffff168152602001908152602001600020549050919050565b61104d611f2d565b73ffffffffffffffffffffffffffffffffffffffff1661106b6110cd565b73ffffffffffffffffffffffffffffffffffffffff16146110c1576040517f08c379a00000000000000000000000000000000000000000000000000000000081526004016110b890613f41565b60405180910390fd5b6110cb6000612333565b565b6000600760009054906101000a900473ffffffffffffffffffffffffffffffffffffffff16905090565b60606001805461110690613c32565b80601f016020809104026020016040519081016040528092919081815260200182805461113290613c32565b801561117f5780601f106111545761010080835404028352916020019161117f565b820191906000526020600020905b81548152906001019060200180831161116257829003601f168201915b5050505050905090565b600060036111da84848080601f016020809104026020016040519081016040528093929190818152602001838380828437600081840152601f19601f820116905080830192505050505050506123f9565b101580156112355750600a61123284848080601f016020809104026020016040519081016040528093929190818152602001838380828437600081840152601f19601f820116905080830192505050505050506123f9565b11155b905092915050565b61124f611248611f2d565b83836125ae565b5050565b61126461125e611f2d565b83611fee565b6112a3576040517f08c379a000000000000000000000000000000000000000000000000000000000815260040161129a90613ed5565b60405180910390fd5b6112af8484848461271b565b50505050565b6000600c83836040516112c9929190613e4a565b908152602001604051809103902060009054906101000a900473ffffffffffffffffffffffffffffffffffffffff16905092915050565b3373ffffffffffffffffffffffffffffffffffffffff16600c8585604051611329929190613e4a565b908152602001604051809103902060009054906101000a900473ffffffffffffffffffffffffffffffffffffffff1673ffffffffffffffffffffffffffffffffffffffff16146113a5576040517f82b4290000000000000000000000000000000000000000000000000000000000815260040160405180910390fd5b8181600d86866040516113b9929190613e4a565b908152602001604051809103902091906113d49291906131d1565b5050505050565b60606113e682611ec1565b611425576040517f08c379a000000000000000000000000000000000000000000000000000000000815260040161141c906141a9565b60405180910390fd5b600060066000848152602001908152602001600020805461144590613c32565b80601f016020809104026020016040519081016040528092919081815260200182805461147190613c32565b80156114be5780601f10611493576101008083540402835291602001916114be565b820191906000526020600020905b8154815290600101906020018083116114a157829003601f168201915b5050505050905060006114cf612777565b90506000815114156114e5578192505050611528565b60008251111561151a5780826040516020016115029291906141fa565b60405160208183030381529060405292505050611528565b6115238461278e565b925050505b919050565b6000600560008473ffffffffffffffffffffffffffffffffffffffff1673ffffffffffffffffffffffffffffffffffffffff16815260200190815260200160002060008373ffffffffffffffffffffffffffffffffffffffff1673ffffffffffffffffffffffffffffffffffffffff16815260200190815260200160002060009054906101000a900460ff16905092915050565b600073ffffffffffffffffffffffffffffffffffffffff16600c83836040516115eb929190613e4a565b908152602001604051809103902060009054906101000a900473ffffffffffffffffffffffffffffffffffffffff1673ffffffffffffffffffffffffffffffffffffffff1614611667576040517f3a81d6fc00000000000000000000000000000000000000000000000000000000815260040160405180910390fd5b6116718282611189565b6116b45781816040517f7f19f48d0000000000000000000000000000000000000000000000000000000081526004016116ab92919061424b565b60405180910390fd5b60006116c08383611d15565b905080341015611705576040517f08c379a00000000000000000000000000000000000000000000000000000000081526004016116fc906142bb565b60405180910390fd5b60008383600960405160200161171d939291906143bb565b60405160208183030381529060405290506000600a82600b604051602001611747939291906143ec565b604051602081830303815290604052905060006117646008612835565b905060006117b587878080601f016020809104026020016040519081016040528093929190818152602001838380828437600081840152601f19601f820116905080830192505050505050506123f9565b905060006117c282612843565b90506118b6604051806060016040528060318152602001614fb56031913989898080601f016020809104026020016040519081016040528093929190818152602001838380828437600081840152601f19601f820116905080830192505050505050506009805461183290613c32565b80601f016020809104026020016040519081016040528092919081815260200182805461185e90613c32565b80156118ab5780601f10611880576101008083540402835291602001916118ab565b820191906000526020600020905b81548152906001019060200180831161188e57829003601f168201915b5050505050866129a4565b60006118ec866118c587612a46565b846040516020016118d893929190614599565b604051602081830303815290604052612a46565b90506000816040516020016119019190614642565b6040516020818303038152906040529050611933604051806060016040528060398152602001614f7c60399139612bde565b6119726040518060400160405280600e81526020017f46696e616c20746f6b656e55524900000000000000000000000000000000000081525082611dbb565b611993604051806060016040528060398152602001614fe660399139612bde565b61199d3386612c77565b6119a78582612c95565b33600c8b8b6040516119ba929190613e4a565b908152602001604051809103902060006101000a81548173ffffffffffffffffffffffffffffffffffffffff021916908373ffffffffffffffffffffffffffffffffffffffff160217905550611a106008612d09565b8989600e60008881526020019081526020016000209190611a329291906131d1565b5050505050505050505050565b611a47611f2d565b73ffffffffffffffffffffffffffffffffffffffff16611a656110cd565b73ffffffffffffffffffffffffffffffffffffffff1614611abb576040517f08c379a0000000000000000000000000000000000000000000000000000000008152600401611ab290613f41565b60405180910390fd5b600073ffffffffffffffffffffffffffffffffffffffff168173ffffffffffffffffffffffffffffffffffffffff161415611b2b576040517f08c379a0000000000000000000000000000000000000000000000000000000008152600401611b22906146d6565b60405180910390fd5b611b3481612333565b50565b6060611b776040518060400160405280601f81526020017f47657474696e6720616c6c206e616d65732066726f6d20636f6e747261637400815250612bde565b6000611b836008612835565b67ffffffffffffffff811115611b9c57611b9b6136b9565b5b604051908082528060200260200182016040528015611bcf57816020015b6060815260200190600190039081611bba5790505b50905060005b611bdf6008612835565b811015611d0d57600e60008281526020019081526020016000208054611c0490613c32565b80601f0160208091040260200160405190810160405280929190818152602001828054611c3090613c32565b8015611c7d5780601f10611c5257610100808354040283529160200191611c7d565b820191906000526020600020905b815481529060010190602001808311611c6057829003601f168201915b5050505050828281518110611c9557611c946146f6565b5b6020026020010181905250611cfa6040518060400160405280601781526020017f4e616d6520666f7220746f6b656e20256420697320257300000000000000000081525082848481518110611ced57611cec6146f6565b5b6020026020010151612d1f565b8080611d0590614754565b915050611bd5565b508091505090565b600080611d6584848080601f016020809104026020016040519081016040528093929190818152602001838380828437600081840152601f19601f820116905080830192505050505050506123f9565b905060008111611d7457600080fd5b6003811415611d8e576706f05b59d3b20000915050611db5565b6004811415611da857670429d069189e0000915050611db5565b67016345785d8a00009150505b92915050565b611e538282604051602401611dd192919061479d565b6040516020818303038152906040527f4b5c4277000000000000000000000000000000000000000000000000000000007bffffffffffffffffffffffffffffffffffffffffffffffffffffffff19166020820180517bffffffffffffffffffffffffffffffffffffffffffffffffffffffff8381831617835250505050612dbe565b5050565b60007f01ffc9a7000000000000000000000000000000000000000000000000000000007bffffffffffffffffffffffffffffffffffffffffffffffffffffffff1916827bffffffffffffffffffffffffffffffffffffffffffffffffffffffff1916149050919050565b60008073ffffffffffffffffffffffffffffffffffffffff166002600084815260200190815260200160002060009054906101000a900473ffffffffffffffffffffffffffffffffffffffff1673ffffffffffffffffffffffffffffffffffffffff1614159050919050565b600033905090565b816004600083815260200190815260200160002060006101000a81548173ffffffffffffffffffffffffffffffffffffffff021916908373ffffffffffffffffffffffffffffffffffffffff160217905550808273ffffffffffffffffffffffffffffffffffffffff16611fa883610edb565b73ffffffffffffffffffffffffffffffffffffffff167f8c5be1e5ebec7d5bd14f71427d1e84f3dd0314c0f7b2291e5b200ac8c7c3b92560405160405180910390a45050565b6000611ff982611ec1565b612038576040517f08c379a000000000000000000000000000000000000000000000000000000000815260040161202f90614846565b60405180910390fd5b600061204383610edb565b90508073ffffffffffffffffffffffffffffffffffffffff168473ffffffffffffffffffffffffffffffffffffffff1614806120b257508373ffffffffffffffffffffffffffffffffffffffff1661209a84610889565b73ffffffffffffffffffffffffffffffffffffffff16145b806120c357506120c2818561152d565b5b91505092915050565b8273ffffffffffffffffffffffffffffffffffffffff166120ec82610edb565b73ffffffffffffffffffffffffffffffffffffffff1614612142576040517f08c379a0000000000000000000000000000000000000000000000000000000008152600401612139906148d8565b60405180910390fd5b600073ffffffffffffffffffffffffffffffffffffffff168273ffffffffffffffffffffffffffffffffffffffff1614156121b2576040517f08c379a00000000000000000000000000000000000000000000000000000000081526004016121a99061496a565b60405180910390fd5b6121bd838383612de7565b6121c8600082611f35565b6001600360008573ffffffffffffffffffffffffffffffffffffffff1673ffffffffffffffffffffffffffffffffffffffff1681526020019081526020016000206000828254612218919061498a565b925050819055506001600360008473ffffffffffffffffffffffffffffffffffffffff1673ffffffffffffffffffffffffffffffffffffffff168152602001908152602001600020600082825461226f91906149be565b92505081905550816002600083815260200190815260200160002060006101000a81548173ffffffffffffffffffffffffffffffffffffffff021916908373ffffffffffffffffffffffffffffffffffffffff160217905550808273ffffffffffffffffffffffffffffffffffffffff168473ffffffffffffffffffffffffffffffffffffffff167fddf252ad1be2c89b69c2b068fc378daa952ba7f163c4a11628f55a4df523b3ef60405160405180910390a461232e838383612dec565b505050565b6000600760009054906101000a900473ffffffffffffffffffffffffffffffffffffffff16905081600760006101000a81548173ffffffffffffffffffffffffffffffffffffffff021916908373ffffffffffffffffffffffffffffffffffffffff1602179055508173ffffffffffffffffffffffffffffffffffffffff168173ffffffffffffffffffffffffffffffffffffffff167f8be0079c531659141344cd1fd0a4f28419497f9722a3daafe3b4186f6b6457e060405160405180910390a35050565b60008060008084519050600092505b808210156125a3576000858381518110612425576124246146f6565b5b602001015160f81c60f81b9050608060f81b817effffffffffffffffffffffffffffffffffffffffffffffffffffffffffffff191610156124745760018361246d91906149be565b925061258f565b60e060f81b817effffffffffffffffffffffffffffffffffffffffffffffffffffffffffffff191610156124b6576002836124af91906149be565b925061258e565b60f060f81b817effffffffffffffffffffffffffffffffffffffffffffffffffffffffffffff191610156124f8576003836124f191906149be565b925061258d565b60f8801b817effffffffffffffffffffffffffffffffffffffffffffffffffffffffffffff191610156125395760048361253291906149be565b925061258c565b60fc60f81b817effffffffffffffffffffffffffffffffffffffffffffffffffffffffffffff1916101561257b5760058361257491906149be565b925061258b565b60068361258891906149be565b92505b5b5b5b5b50828061259b90614754565b935050612408565b829350505050919050565b8173ffffffffffffffffffffffffffffffffffffffff168373ffffffffffffffffffffffffffffffffffffffff16141561261d576040517f08c379a000000000000000000000000000000000000000000000000000000000815260040161261490614a60565b60405180910390fd5b80600560008573ffffffffffffffffffffffffffffffffffffffff1673ffffffffffffffffffffffffffffffffffffffff16815260200190815260200160002060008473ffffffffffffffffffffffffffffffffffffffff1673ffffffffffffffffffffffffffffffffffffffff16815260200190815260200160002060006101000a81548160ff0219169083151502179055508173ffffffffffffffffffffffffffffffffffffffff168373ffffffffffffffffffffffffffffffffffffffff167f17307eab39ab6107e8899845ad3d59bd9653f200f220920489ca2b5937696c318360405161270e91906133ae565b60405180910390a3505050565b6127268484846120cc565b61273284848484612df1565b612771576040517f08c379a000000000000000000000000000000000000000000000000000000000815260040161276890614af2565b60405180910390fd5b50505050565b606060405180602001604052806000815250905090565b606061279982611ec1565b6127d8576040517f08c379a00000000000000000000000000000000000000000000000000000000081526004016127cf90614b84565b60405180910390fd5b60006127e2612777565b90506000815111612802576040518060200160405280600081525061282d565b8061280c84612843565b60405160200161281d9291906141fa565b6040516020818303038152906040525b915050919050565b600081600001549050919050565b6060600082141561288b576040518060400160405280600181526020017f3000000000000000000000000000000000000000000000000000000000000000815250905061299f565b600082905060005b600082146128bd5780806128a690614754565b915050600a826128b69190614bd3565b9150612893565b60008167ffffffffffffffff8111156128d9576128d86136b9565b5b6040519080825280601f01601f19166020018201604052801561290b5781602001600182028036833780820191505090505b5090505b6000851461299857600182612924919061498a565b9150600a856129339190614c04565b603061293f91906149be565b60f81b818381518110612955576129546146f6565b5b60200101907effffffffffffffffffffffffffffffffffffffffffffffffffffffffffffff1916908160001a905350600a856129919190614bd3565b945061290f565b8093505050505b919050565b612a40848484846040516024016129be9493929190614c35565b6040516020818303038152906040527f9fd009f5000000000000000000000000000000000000000000000000000000007bffffffffffffffffffffffffffffffffffffffffffffffffffffffff19166020820180517bffffffffffffffffffffffffffffffffffffffffffffffffffffffff8381831617835250505050612dbe565b50505050565b60606000825190506000811415612a6f5760405180602001604052806000815250915050612bd9565b60006003600283612a8091906149be565b612a8a9190614bd3565b6004612a969190614c8f565b90506000602082612aa791906149be565b67ffffffffffffffff811115612ac057612abf6136b9565b5b6040519080825280601f01601f191660200182016040528015612af25781602001600182028036833780820191505090505b509050600060405180606001604052806040815260200161501f604091399050600181016020830160005b86811015612b965760038101905062ffffff818a015116603f8160121c168401518060081b905060ff603f83600c1c1686015116810190508060081b905060ff603f8360061c1686015116810190508060081b905060ff603f831686015116810190508060e01b90508084526004840193505050612b1d565b506003860660018114612bb05760028114612bc057612bcb565b613d3d60f01b6002830352612bcb565b603d60f81b60018303525b508484525050819450505050505b919050565b612c7481604051602401612bf29190613462565b6040516020818303038152906040527f41304fac000000000000000000000000000000000000000000000000000000007bffffffffffffffffffffffffffffffffffffffffffffffffffffffff19166020820180517bffffffffffffffffffffffffffffffffffffffffffffffffffffffff8381831617835250505050612dbe565b50565b612c91828260405180602001604052806000815250612f79565b5050565b612c9e82611ec1565b612cdd576040517f08c379a0000000000000000000000000000000000000000000000000000000008152600401612cd490614d5b565b60405180910390fd5b80600660008481526020019081526020016000209080519060200190612d04929190613257565b505050565b6001816000016000828254019250508190555050565b612db9838383604051602401612d3793929190614d7b565b6040516020818303038152906040527fa3f5c739000000000000000000000000000000000000000000000000000000007bffffffffffffffffffffffffffffffffffffffffffffffffffffffff19166020820180517bffffffffffffffffffffffffffffffffffffffffffffffffffffffff8381831617835250505050612dbe565b505050565b60008151905060006a636f6e736f6c652e6c6f679050602083016000808483855afa5050505050565b505050565b505050565b6000612e128473ffffffffffffffffffffffffffffffffffffffff16612fd4565b15612f6c578373ffffffffffffffffffffffffffffffffffffffff1663150b7a02612e3b611f2d565b8786866040518563ffffffff1660e01b8152600401612e5d9493929190614e15565b6020604051808303816000875af1925050508015612e9957506040513d601f19601f82011682018060405250810190612e969190614e76565b60015b612f1c573d8060008114612ec9576040519150601f19603f3d011682016040523d82523d6000602084013e612ece565b606091505b50600081511415612f14576040517f08c379a0000000000000000000000000000000000000000000000000000000008152600401612f0b90614af2565b60405180910390fd5b805181602001fd5b63150b7a0260e01b7bffffffffffffffffffffffffffffffffffffffffffffffffffffffff1916817bffffffffffffffffffffffffffffffffffffffffffffffffffffffff191614915050612f71565b600190505b949350505050565b612f838383612ff7565b612f906000848484612df1565b612fcf576040517f08c379a0000000000000000000000000000000000000000000000000000000008152600401612fc690614af2565b60405180910390fd5b505050565b6000808273ffffffffffffffffffffffffffffffffffffffff163b119050919050565b600073ffffffffffffffffffffffffffffffffffffffff168273ffffffffffffffffffffffffffffffffffffffff161415613067576040517f08c379a000000000000000000000000000000000000000000000000000000000815260040161305e90614eef565b60405180910390fd5b61307081611ec1565b156130b0576040517f08c379a00000000000000000000000000000000000000000000000000000000081526004016130a790614f5b565b60405180910390fd5b6130bc60008383612de7565b6001600360008473ffffffffffffffffffffffffffffffffffffffff1673ffffffffffffffffffffffffffffffffffffffff168152602001908152602001600020600082825461310c91906149be565b92505081905550816002600083815260200190815260200160002060006101000a81548173ffffffffffffffffffffffffffffffffffffffff021916908373ffffffffffffffffffffffffffffffffffffffff160217905550808273ffffffffffffffffffffffffffffffffffffffff16600073ffffffffffffffffffffffffffffffffffffffff167fddf252ad1be2c89b69c2b068fc378daa952ba7f163c4a11628f55a4df523b3ef60405160405180910390a46131cd60008383612dec565b5050565b8280546131dd90613c32565b90600052602060002090601f0160209004810192826131ff5760008555613246565b82601f1061321857803560ff1916838001178555613246565b82800160010185558215613246579182015b8281111561324557823582559160200191906001019061322a565b5b50905061325391906132dd565b5090565b82805461326390613c32565b90600052602060002090601f01602090048101928261328557600085556132cc565b82601f1061329e57805160ff19168380011785556132cc565b828001600101855582156132cc579182015b828111156132cb5782518255916020019190600101906132b0565b5b5090506132d991906132dd565b5090565b5b808211156132f65760008160009055506001016132de565b5090565b6000604051905090565b600080fd5b600080fd5b60007fffffffff0000000000000000000000000000000000000000000000000000000082169050919050565b6133438161330e565b811461334e57600080fd5b50565b6000813590506133608161333a565b92915050565b60006020828403121561337c5761337b613304565b5b600061338a84828501613351565b91505092915050565b60008115159050919050565b6133a881613393565b82525050565b60006020820190506133c3600083018461339f565b92915050565b600081519050919050565b600082825260208201905092915050565b60005b838110156134035780820151818401526020810190506133e8565b83811115613412576000848401525b50505050565b6000601f19601f8301169050919050565b6000613434826133c9565b61343e81856133d4565b935061344e8185602086016133e5565b61345781613418565b840191505092915050565b6000602082019050818103600083015261347c8184613429565b905092915050565b6000819050919050565b61349781613484565b81146134a257600080fd5b50565b6000813590506134b48161348e565b92915050565b6000602082840312156134d0576134cf613304565b5b60006134de848285016134a5565b91505092915050565b600073ffffffffffffffffffffffffffffffffffffffff82169050919050565b6000613512826134e7565b9050919050565b61352281613507565b82525050565b600060208201905061353d6000830184613519565b92915050565b61354c81613507565b811461355757600080fd5b50565b60008135905061356981613543565b92915050565b6000806040838503121561358657613585613304565b5b60006135948582860161355a565b92505060206135a5858286016134a5565b9150509250929050565b600080fd5b600080fd5b600080fd5b60008083601f8401126135d4576135d36135af565b5b8235905067ffffffffffffffff8111156135f1576135f06135b4565b5b60208301915083600182028301111561360d5761360c6135b9565b5b9250929050565b6000806020838503121561362b5761362a613304565b5b600083013567ffffffffffffffff81111561364957613648613309565b5b613655858286016135be565b92509250509250929050565b60008060006060848603121561367a57613679613304565b5b60006136888682870161355a565b93505060206136998682870161355a565b92505060406136aa868287016134a5565b9150509250925092565b600080fd5b7f4e487b7100000000000000000000000000000000000000000000000000000000600052604160045260246000fd5b6136f182613418565b810181811067ffffffffffffffff821117156137105761370f6136b9565b5b80604052505050565b60006137236132fa565b905061372f82826136e8565b919050565b600067ffffffffffffffff82111561374f5761374e6136b9565b5b61375882613418565b9050602081019050919050565b82818337600083830152505050565b600061378761378284613734565b613719565b9050828152602081018484840111156137a3576137a26136b4565b5b6137ae848285613765565b509392505050565b600082601f8301126137cb576137ca6135af565b5b81356137db848260208601613774565b91505092915050565b6000602082840312156137fa576137f9613304565b5b600082013567ffffffffffffffff81111561381857613817613309565b5b613824848285016137b6565b91505092915050565b60006020828403121561384357613842613304565b5b60006138518482850161355a565b91505092915050565b61386381613484565b82525050565b600060208201905061387e600083018461385a565b92915050565b61388d81613393565b811461389857600080fd5b50565b6000813590506138aa81613884565b92915050565b600080604083850312156138c7576138c6613304565b5b60006138d58582860161355a565b92505060206138e68582860161389b565b9150509250929050565b600067ffffffffffffffff82111561390b5761390a6136b9565b5b61391482613418565b9050602081019050919050565b600061393461392f846138f0565b613719565b9050828152602081018484840111156139505761394f6136b4565b5b61395b848285613765565b509392505050565b600082601f830112613978576139776135af565b5b8135613988848260208601613921565b91505092915050565b600080600080608085870312156139ab576139aa613304565b5b60006139b98782880161355a565b94505060206139ca8782880161355a565b93505060406139db878288016134a5565b925050606085013567ffffffffffffffff8111156139fc576139fb613309565b5b613a0887828801613963565b91505092959194509250565b60008060008060408587031215613a2e57613a2d613304565b5b600085013567ffffffffffffffff811115613a4c57613a4b613309565b5b613a58878288016135be565b9450945050602085013567ffffffffffffffff811115613a7b57613a7a613309565b5b613a87878288016135be565b925092505092959194509250565b60008060408385031215613aac57613aab613304565b5b6000613aba8582860161355a565b9250506020613acb8582860161355a565b9150509250929050565b600081519050919050565b600082825260208201905092915050565b6000819050602082019050919050565b600082825260208201905092915050565b6000613b1d826133c9565b613b278185613b01565b9350613b378185602086016133e5565b613b4081613418565b840191505092915050565b6000613b578383613b12565b905092915050565b6000602082019050919050565b6000613b7782613ad5565b613b818185613ae0565b935083602082028501613b9385613af1565b8060005b85811015613bcf5784840389528151613bb08582613b4b565b9450613bbb83613b5f565b925060208a01995050600181019050613b97565b50829750879550505050505092915050565b60006020820190508181036000830152613bfb8184613b6c565b905092915050565b7f4e487b7100000000000000000000000000000000000000000000000000000000600052602260045260246000fd5b60006002820490506001821680613c4a57607f821691505b60208210811415613c5e57613c5d613c03565b5b50919050565b7f4552433732313a20617070726f76656420717565727920666f72206e6f6e657860008201527f697374656e7420746f6b656e0000000000000000000000000000000000000000602082015250565b6000613cc0602c836133d4565b9150613ccb82613c64565b604082019050919050565b60006020820190508181036000830152613cef81613cb3565b9050919050565b7f4552433732313a20617070726f76616c20746f2063757272656e74206f776e6560008201527f7200000000000000000000000000000000000000000000000000000000000000602082015250565b6000613d526021836133d4565b9150613d5d82613cf6565b604082019050919050565b60006020820190508181036000830152613d8181613d45565b9050919050565b7f4552433732313a20617070726f76652063616c6c6572206973206e6f74206f7760008201527f6e6572206e6f7220617070726f76656420666f7220616c6c0000000000000000602082015250565b6000613de46038836133d4565b9150613def82613d88565b604082019050919050565b60006020820190508181036000830152613e1381613dd7565b9050919050565b600081905092915050565b6000613e318385613e1a565b9350613e3e838584613765565b82840190509392505050565b6000613e57828486613e25565b91508190509392505050565b7f4552433732313a207472616e736665722063616c6c6572206973206e6f74206f60008201527f776e6572206e6f7220617070726f766564000000000000000000000000000000602082015250565b6000613ebf6031836133d4565b9150613eca82613e63565b604082019050919050565b60006020820190508181036000830152613eee81613eb2565b9050919050565b7f4f776e61626c653a2063616c6c6572206973206e6f7420746865206f776e6572600082015250565b6000613f2b6020836133d4565b9150613f3682613ef5565b602082019050919050565b60006020820190508181036000830152613f5a81613f1e565b9050919050565b600081905092915050565b50565b6000613f7c600083613f61565b9150613f8782613f6c565b600082019050919050565b6000613f9d82613f6f565b9150819050919050565b7f4661696c656420746f207769746864726177204d617469630000000000000000600082015250565b6000613fdd6018836133d4565b9150613fe882613fa7565b602082019050919050565b6000602082019050818103600083015261400c81613fd0565b9050919050565b7f4552433732313a206f776e657220717565727920666f72206e6f6e657869737460008201527f656e7420746f6b656e0000000000000000000000000000000000000000000000602082015250565b600061406f6029836133d4565b915061407a82614013565b604082019050919050565b6000602082019050818103600083015261409e81614062565b9050919050565b7f4552433732313a2062616c616e636520717565727920666f7220746865207a6560008201527f726f206164647265737300000000000000000000000000000000000000000000602082015250565b6000614101602a836133d4565b915061410c826140a5565b604082019050919050565b60006020820190508181036000830152614130816140f4565b9050919050565b7f45524337323155524953746f726167653a2055524920717565727920666f722060008201527f6e6f6e6578697374656e7420746f6b656e000000000000000000000000000000602082015250565b60006141936031836133d4565b915061419e82614137565b604082019050919050565b600060208201905081810360008301526141c281614186565b9050919050565b60006141d4826133c9565b6141de8185613e1a565b93506141ee8185602086016133e5565b80840191505092915050565b600061420682856141c9565b915061421282846141c9565b91508190509392505050565b600061422a83856133d4565b9350614237838584613765565b61424083613418565b840190509392505050565b6000602082019050818103600083015261426681848661421e565b90509392505050565b7f4e6f7420656e6f756768204d6174696320706169640000000000000000000000600082015250565b60006142a56015836133d4565b91506142b08261426f565b602082019050919050565b600060208201905081810360008301526142d481614298565b9050919050565b7f2e00000000000000000000000000000000000000000000000000000000000000600082015250565b6000614311600183613e1a565b915061431c826142db565b600182019050919050565b60008190508160005260206000209050919050565b6000815461434981613c32565b6143538186613e1a565b9450600182166000811461436e576001811461437f576143b2565b60ff198316865281860193506143b2565b61438885614327565b60005b838110156143aa5781548189015260018201915060208101905061438b565b838801955050505b50505092915050565b60006143c8828587613e25565b91506143d382614304565b91506143df828461433c565b9150819050949350505050565b60006143f8828661433c565b915061440482856141c9565b9150614410828461433c565b9150819050949350505050565b7f7b226e616d65223a202200000000000000000000000000000000000000000000600082015250565b6000614453600a83613e1a565b915061445e8261441d565b600a82019050919050565b7f222c20226465736372697074696f6e223a20224120646f6d61696e206f6e207460008201527f68652054656a75206e616d652073657276696365222c2022696d616765223a2060208201527f22646174613a696d6167652f7376672b786d6c3b6261736536342c0000000000604082015250565b60006144eb605b83613e1a565b91506144f682614469565b605b82019050919050565b7f222c226c656e677468223a220000000000000000000000000000000000000000600082015250565b6000614537600c83613e1a565b915061454282614501565b600c82019050919050565b7f227d000000000000000000000000000000000000000000000000000000000000600082015250565b6000614583600283613e1a565b915061458e8261454d565b600282019050919050565b60006145a482614446565b91506145b082866141c9565b91506145bb826144de565b91506145c782856141c9565b91506145d28261452a565b91506145de82846141c9565b91506145e982614576565b9150819050949350505050565b7f646174613a6170706c69636174696f6e2f6a736f6e3b6261736536342c000000600082015250565b600061462c601d83613e1a565b9150614637826145f6565b601d82019050919050565b600061464d8261461f565b915061465982846141c9565b915081905092915050565b7f4f776e61626c653a206e6577206f776e657220697320746865207a65726f206160008201527f6464726573730000000000000000000000000000000000000000000000000000602082015250565b60006146c06026836133d4565b91506146cb82614664565b604082019050919050565b600060208201905081810360008301526146ef816146b3565b9050919050565b7f4e487b7100000000000000000000000000000000000000000000000000000000600052603260045260246000fd5b7f4e487b7100000000000000000000000000000000000000000000000000000000600052601160045260246000fd5b600061475f82613484565b91507fffffffffffffffffffffffffffffffffffffffffffffffffffffffffffffffff82141561479257614791614725565b5b600182019050919050565b600060408201905081810360008301526147b78185613429565b905081810360208301526147cb8184613429565b90509392505050565b7f4552433732313a206f70657261746f7220717565727920666f72206e6f6e657860008201527f697374656e7420746f6b656e0000000000000000000000000000000000000000602082015250565b6000614830602c836133d4565b915061483b826147d4565b604082019050919050565b6000602082019050818103600083015261485f81614823565b9050919050565b7f4552433732313a207472616e736665722066726f6d20696e636f72726563742060008201527f6f776e6572000000000000000000000000000000000000000000000000000000602082015250565b60006148c26025836133d4565b91506148cd82614866565b604082019050919050565b600060208201905081810360008301526148f1816148b5565b9050919050565b7f4552433732313a207472616e7366657220746f20746865207a65726f2061646460008201527f7265737300000000000000000000000000000000000000000000000000000000602082015250565b60006149546024836133d4565b915061495f826148f8565b604082019050919050565b6000602082019050818103600083015261498381614947565b9050919050565b600061499582613484565b91506149a083613484565b9250828210156149b3576149b2614725565b5b828203905092915050565b60006149c982613484565b91506149d483613484565b9250827fffffffffffffffffffffffffffffffffffffffffffffffffffffffffffffffff03821115614a0957614a08614725565b5b828201905092915050565b7f4552433732313a20617070726f766520746f2063616c6c657200000000000000600082015250565b6000614a4a6019836133d4565b9150614a5582614a14565b602082019050919050565b60006020820190508181036000830152614a7981614a3d565b9050919050565b7f4552433732313a207472616e7366657220746f206e6f6e20455243373231526560008201527f63656976657220696d706c656d656e7465720000000000000000000000000000602082015250565b6000614adc6032836133d4565b9150614ae782614a80565b604082019050919050565b60006020820190508181036000830152614b0b81614acf565b9050919050565b7f4552433732314d657461646174613a2055524920717565727920666f72206e6f60008201527f6e6578697374656e7420746f6b656e0000000000000000000000000000000000602082015250565b6000614b6e602f836133d4565b9150614b7982614b12565b604082019050919050565b60006020820190508181036000830152614b9d81614b61565b9050919050565b7f4e487b7100000000000000000000000000000000000000000000000000000000600052601260045260246000fd5b6000614bde82613484565b9150614be983613484565b925082614bf957614bf8614ba4565b5b828204905092915050565b6000614c0f82613484565b9150614c1a83613484565b925082614c2a57614c29614ba4565b5b828206905092915050565b60006080820190508181036000830152614c4f8187613429565b90508181036020830152614c638186613429565b90508181036040830152614c778185613429565b9050614c86606083018461385a565b95945050505050565b6000614c9a82613484565b9150614ca583613484565b9250817fffffffffffffffffffffffffffffffffffffffffffffffffffffffffffffffff0483118215151615614cde57614cdd614725565b5b828202905092915050565b7f45524337323155524953746f726167653a2055524920736574206f66206e6f6e60008201527f6578697374656e7420746f6b656e000000000000000000000000000000000000602082015250565b6000614d45602e836133d4565b9150614d5082614ce9565b604082019050919050565b60006020820190508181036000830152614d7481614d38565b9050919050565b60006060820190508181036000830152614d958186613429565b9050614da4602083018561385a565b8181036040830152614db68184613429565b9050949350505050565b600081519050919050565b600082825260208201905092915050565b6000614de782614dc0565b614df18185614dcb565b9350614e018185602086016133e5565b614e0a81613418565b840191505092915050565b6000608082019050614e2a6000830187613519565b614e376020830186613519565b614e44604083018561385a565b8181036060830152614e568184614ddc565b905095945050505050565b600081519050614e708161333a565b92915050565b600060208284031215614e8c57614e8b613304565b5b6000614e9a84828501614e61565b91505092915050565b7f4552433732313a206d696e7420746f20746865207a65726f2061646472657373600082015250565b6000614ed96020836133d4565b9150614ee482614ea3565b602082019050919050565b60006020820190508181036000830152614f0881614ecc565b9050919050565b7f4552433732313a20746f6b656e20616c7265616479206d696e74656400000000600082015250565b6000614f45601c836133d4565b9150614f5082614f0f565b602082019050919050565b60006020820190508181036000830152614f7481614f38565b905091905056fe0a2d2d2d2d2d2d2d2d2d2d2d2d2d2d2d2d2d2d2d2d2d2d2d2d2d2d2d2d2d2d2d2d2d2d2d2d2d2d2d2d2d2d2d2d2d2d2d2d2d2d2d2d2d2d2d2d5265676973746572696e672025732e2573206f6e2074686520636f6e7472616374207769746820746f6b656e49442025642d2d2d2d2d2d2d2d2d2d2d2d2d2d2d2d2d2d2d2d2d2d2d2d2d2d2d2d2d2d2d2d2d2d2d2d2d2d2d2d2d2d2d2d2d2d2d2d2d2d2d2d2d2d2d2d0a4142434445464748494a4b4c4d4e4f505152535455565758595a6162636465666768696a6b6c6d6e6f707172737475767778797a303132333435363738392b2fa264697066735822122093780bae1fcf10056a8aa3a660eb2d0296ff7f50f6a49257f27b85edca39f3ab64736f6c634300080a00333c73766720786d6c6e733d22687474703a2f2f7777772e77332e6f72672f323030302f737667222077696474683d2232373022206865696768743d22323730222066696c6c3d226e6f6e65223e3c706174682066696c6c3d2275726c282342292220643d224d302030683237307632373048307a222f3e3c646566733e3c66696c7465722069643d22412220636f6c6f722d696e746572706f6c6174696f6e2d66696c746572733d2273524742222066696c746572556e6974733d227573657253706163654f6e55736522206865696768743d22323730222077696474683d22323730223e3c666544726f70536861646f772064783d2230222064793d22312220737464446576696174696f6e3d22322220666c6f6f642d6f7061636974793d222e323235222077696474683d223230302522206865696768743d2232303025222f3e3c2f66696c7465723e3c2f646566733e3c7061746820643d224d37322e3836332034322e393439632d2e3636382d2e3338372d312e3432362d2e35392d322e3139372d2e3539732d312e3532392e3230342d322e3139372e35396c2d31302e30383120362e3033322d362e383520332e3933342d31302e30383120362e303332632d2e3636382e3338372d312e3432362e35392d322e3139372e3539732d312e3532392d2e3230342d322e3139372d2e35396c2d382e3031332d342e37323161342e353220342e35322030203020312d312e3538392d312e363136632d2e3338342d2e3636352d2e3539342d312e3431382d2e3630382d322e313837762d392e3331632d2e3031332d2e3737352e3138352d312e3533382e3537322d322e32303861342e323520342e323520302030203120312e3632352d312e3539356c372e3838342d342e3539632e3636382d2e33383720312e3432362d2e353920322e3139372d2e353973312e3532392e32303420322e3139372e35396c372e38383420342e353961342e353220342e353220302030203120312e35383920312e363136632e3338342e3636352e35393420312e3431382e36303820322e31383776362e3033326c362e38352d342e303635762d362e303332632e3031332d2e3737352d2e3138352d312e3533382d2e3537322d322e32303861342e323520342e32352030203020302d312e3632352d312e3539354c34312e3435362032342e3539632d2e3636382d2e3338372d312e3432362d2e35392d322e3139372d2e3539732d312e3532392e3230342d322e3139372e35396c2d31342e38363420382e36353561342e323520342e32352030203020302d312e36323520312e353935632d2e3338372e36372d2e35383520312e3433342d2e35373220322e3230387631372e343431632d2e3031332e3737352e31383520312e3533382e35373220322e32303861342e323520342e323520302030203020312e36323520312e3539356c31342e38363420382e363535632e3636382e33383720312e3432362e353920322e3139372e353973312e3532392d2e32303420322e3139372d2e35396c31302e3038312d352e39303120362e38352d342e3036352031302e3038312d352e393031632e3636382d2e33383720312e3432362d2e353920322e3139372d2e353973312e3532392e32303420322e3139372e35396c372e38383420342e353961342e353220342e353220302030203120312e35383920312e363136632e3338342e3636352e35393420312e3431382e36303820322e31383776392e333131632e3031332e3737352d2e31383520312e3533382d2e35373220322e32303861342e323520342e32352030203020312d312e36323520312e3539356c2d372e38383420342e373231632d2e3636382e3338372d312e3432362e35392d322e3139372e3539732d312e3532392d2e3230342d322e3139372d2e35396c2d372e3838342d342e353961342e353220342e35322030203020312d312e3538392d312e363136632d2e3338352d2e3636352d2e3539342d312e3431382d2e3630382d322e313837762d362e3033326c2d362e383520342e30363576362e303332632d2e3031332e3737352e31383520312e3533382e35373220322e32303861342e323520342e323520302030203020312e36323520312e3539356c31342e38363420382e363535632e3636382e33383720312e3432362e353920322e3139372e353973312e3532392d2e32303420322e3139372d2e35396c31342e3836342d382e363535632e3635372d2e33393420312e3230342d2e393520312e3538392d312e363136732e3539342d312e3431382e3630392d322e3138375635352e353338632e3031332d2e3737352d2e3138352d312e3533382d2e3537322d322e32303861342e323520342e32352030203020302d312e3632352d312e3539356c2d31342e3939332d382e3738367a222066696c6c3d2223666666222f3e3c646566733e3c6c696e6561724772616469656e742069643d2242222078313d2230222079313d2230222078323d22323730222079323d2232373022206772616469656e74556e6974733d227573657253706163654f6e557365223e3c73746f702073746f702d636f6c6f723d2223636235656565222f3e3c73746f70206f66667365743d2231222073746f702d636f6c6f723d2223306364376534222073746f702d6f7061636974793d222e3939222f3e3c2f6c696e6561724772616469656e743e3c2f646566733e3c7465787420783d2233322e352220793d223233312220666f6e742d73697a653d223237222066696c6c3d2223666666222066696c7465723d2275726c282341292220666f6e742d66616d696c793d22506c7573204a616b617274612053616e732c44656a6156752053616e732c4e6f746f20436f6c6f7220456d6f6a692c4170706c6520436f6c6f7220456d6f6a692c73616e732d73657269662220666f6e742d7765696768743d22626f6c64223e",
  "linkReferences": {},
  "deployedLinkReferences": {}
}